{
  "_format": "hh-sol-artifact-1",
  "contractName": "PairXEscrow",
  "sourceName": "contracts/PairXEscrow.sol",
  "abi": [
    {
      "inputs": [
        {
          "internalType": "address",
          "name": "initialOwner",
          "type": "address"
        }
      ],
      "stateMutability": "nonpayable",
      "type": "constructor"
    },
    {
      "inputs": [],
      "name": "EnforcedPause",
      "type": "error"
    },
    {
      "inputs": [],
      "name": "ExpectedPause",
      "type": "error"
    },
    {
      "inputs": [
        {
          "internalType": "address",
          "name": "owner",
          "type": "address"
        }
      ],
      "name": "OwnableInvalidOwner",
      "type": "error"
    },
    {
      "inputs": [
        {
          "internalType": "address",
          "name": "account",
          "type": "address"
        }
      ],
      "name": "OwnableUnauthorizedAccount",
      "type": "error"
    },
    {
      "inputs": [],
      "name": "ReentrancyGuardReentrantCall",
      "type": "error"
    },
    {
      "anonymous": false,
      "inputs": [
        {
          "indexed": true,
          "internalType": "uint256",
          "name": "tradeId",
          "type": "uint256"
        },
        {
          "indexed": true,
          "internalType": "address",
          "name": "winner",
          "type": "address"
        },
        {
          "indexed": false,
          "internalType": "uint256",
          "name": "amount",
          "type": "uint256"
        },
        {
          "indexed": false,
          "internalType": "uint256",
          "name": "timestamp",
          "type": "uint256"
        }
      ],
      "name": "DisputeResolved",
      "type": "event"
    },
    {
      "anonymous": false,
      "inputs": [
        {
          "indexed": true,
          "internalType": "uint256",
          "name": "tradeId",
          "type": "uint256"
        },
        {
          "indexed": true,
          "internalType": "address",
          "name": "triggeredBy",
          "type": "address"
        },
        {
          "indexed": false,
          "internalType": "uint256",
          "name": "timestamp",
          "type": "uint256"
        }
      ],
      "name": "DisputeTriggered",
      "type": "event"
    },
    {
      "anonymous": false,
      "inputs": [
        {
          "indexed": true,
          "internalType": "address",
          "name": "previousOwner",
          "type": "address"
        },
        {
          "indexed": true,
          "internalType": "address",
          "name": "newOwner",
          "type": "address"
        }
      ],
      "name": "OwnershipTransferred",
      "type": "event"
    },
    {
      "anonymous": false,
      "inputs": [
        {
          "indexed": false,
          "internalType": "address",
          "name": "account",
          "type": "address"
        }
      ],
      "name": "Paused",
      "type": "event"
    },
    {
      "anonymous": false,
      "inputs": [
        {
          "indexed": true,
          "internalType": "uint256",
          "name": "tradeId",
          "type": "uint256"
        },
        {
          "indexed": true,
          "internalType": "address",
          "name": "buyer",
          "type": "address"
        },
        {
          "indexed": false,
          "internalType": "uint256",
          "name": "timestamp",
          "type": "uint256"
        }
      ],
      "name": "TradeAccepted",
      "type": "event"
    },
    {
      "anonymous": false,
      "inputs": [
        {
          "indexed": true,
          "internalType": "uint256",
          "name": "tradeId",
          "type": "uint256"
        },
        {
          "indexed": true,
          "internalType": "address",
          "name": "seller",
          "type": "address"
        },
        {
          "indexed": false,
          "internalType": "uint256",
          "name": "amount",
          "type": "uint256"
        },
        {
          "indexed": false,
          "internalType": "uint256",
          "name": "timestamp",
          "type": "uint256"
        }
      ],
      "name": "TradeCancelled",
      "type": "event"
    },
    {
      "anonymous": false,
      "inputs": [
        {
          "indexed": true,
          "internalType": "uint256",
          "name": "tradeId",
          "type": "uint256"
        },
        {
          "indexed": true,
          "internalType": "address",
          "name": "seller",
          "type": "address"
        },
        {
          "indexed": false,
          "internalType": "uint256",
          "name": "amount",
          "type": "uint256"
        },
        {
          "indexed": false,
          "internalType": "string",
          "name": "paymentMethod",
          "type": "string"
        },
        {
          "indexed": false,
          "internalType": "uint256",
          "name": "timestamp",
          "type": "uint256"
        }
      ],
      "name": "TradeCreated",
      "type": "event"
    },
    {
      "anonymous": false,
      "inputs": [
        {
          "indexed": true,
          "internalType": "uint256",
          "name": "tradeId",
          "type": "uint256"
        },
        {
          "indexed": true,
          "internalType": "address",
          "name": "buyer",
          "type": "address"
        },
        {
          "indexed": false,
          "internalType": "uint256",
          "name": "timestamp",
          "type": "uint256"
        }
      ],
      "name": "TradePaid",
      "type": "event"
    },
    {
      "anonymous": false,
      "inputs": [
        {
          "indexed": true,
          "internalType": "uint256",
          "name": "tradeId",
          "type": "uint256"
        },
        {
          "indexed": true,
          "internalType": "address",
          "name": "seller",
          "type": "address"
        },
        {
          "indexed": true,
          "internalType": "address",
          "name": "buyer",
          "type": "address"
        },
        {
          "indexed": false,
          "internalType": "uint256",
          "name": "amount",
          "type": "uint256"
        },
        {
          "indexed": false,
          "internalType": "uint256",
          "name": "timestamp",
          "type": "uint256"
        }
      ],
      "name": "TradeReleased",
      "type": "event"
    },
    {
      "anonymous": false,
      "inputs": [
        {
          "indexed": false,
          "internalType": "address",
          "name": "account",
          "type": "address"
        }
      ],
      "name": "Unpaused",
      "type": "event"
    },
    {
      "inputs": [],
      "name": "TIMEOUT_DURATION",
      "outputs": [
        {
          "internalType": "uint256",
          "name": "",
          "type": "uint256"
        }
      ],
      "stateMutability": "view",
      "type": "function"
    },
    {
      "inputs": [],
      "name": "USDC_SYSTEM_CONTRACT",
      "outputs": [
        {
          "internalType": "address",
          "name": "",
          "type": "address"
        }
      ],
      "stateMutability": "view",
      "type": "function"
    },
    {
      "inputs": [],
      "name": "VERSION",
      "outputs": [
        {
          "internalType": "string",
          "name": "",
          "type": "string"
        }
      ],
      "stateMutability": "view",
      "type": "function"
    },
    {
      "inputs": [
        {
          "internalType": "uint256",
          "name": "tradeId",
          "type": "uint256"
        }
      ],
      "name": "acceptTrade",
      "outputs": [],
      "stateMutability": "nonpayable",
      "type": "function"
    },
    {
      "inputs": [
        {
          "internalType": "uint256",
          "name": "tradeId",
          "type": "uint256"
        }
      ],
      "name": "cancel",
      "outputs": [],
      "stateMutability": "nonpayable",
      "type": "function"
    },
    {
      "inputs": [
        {
          "internalType": "uint256",
          "name": "tradeId",
          "type": "uint256"
        }
      ],
      "name": "checkTimeout",
      "outputs": [
        {
          "internalType": "bool",
          "name": "",
          "type": "bool"
        }
      ],
      "stateMutability": "view",
      "type": "function"
    },
    {
      "inputs": [
        {
          "internalType": "address",
          "name": "",
          "type": "address"
        }
      ],
      "name": "completedTrades",
      "outputs": [
        {
          "internalType": "uint256",
          "name": "",
          "type": "uint256"
        }
      ],
      "stateMutability": "view",
      "type": "function"
    },
    {
      "inputs": [
        {
          "internalType": "string",
          "name": "paymentMethod",
          "type": "string"
        }
      ],
      "name": "createTrade",
      "outputs": [
        {
          "internalType": "uint256",
          "name": "",
          "type": "uint256"
        }
      ],
      "stateMutability": "payable",
      "type": "function"
    },
    {
      "inputs": [
        {
          "internalType": "uint256",
          "name": "tradeId",
          "type": "uint256"
        }
      ],
      "name": "disputeTimeout",
      "outputs": [],
      "stateMutability": "nonpayable",
      "type": "function"
    },
    {
      "inputs": [],
      "name": "getContractBalance",
      "outputs": [
        {
          "internalType": "uint256",
          "name": "",
          "type": "uint256"
        }
      ],
      "stateMutability": "view",
      "type": "function"
    },
    {
      "inputs": [
        {
          "internalType": "address",
          "name": "user",
          "type": "address"
        }
      ],
      "name": "getReputation",
      "outputs": [
        {
          "internalType": "uint256",
          "name": "",
          "type": "uint256"
        }
      ],
      "stateMutability": "view",
      "type": "function"
    },
    {
      "inputs": [
        {
          "internalType": "uint256",
          "name": "tradeId",
          "type": "uint256"
        }
      ],
      "name": "getTrade",
      "outputs": [
        {
          "components": [
            {
              "internalType": "uint256",
              "name": "tradeId",
              "type": "uint256"
            },
            {
              "internalType": "address",
              "name": "seller",
              "type": "address"
            },
            {
              "internalType": "address",
              "name": "buyer",
              "type": "address"
            },
            {
              "internalType": "uint256",
              "name": "amount",
              "type": "uint256"
            },
            {
              "internalType": "enum PairXEscrow.TradeState",
              "name": "state",
              "type": "uint8"
            },
            {
              "internalType": "uint256",
              "name": "createdAt",
              "type": "uint256"
            },
            {
              "internalType": "uint256",
              "name": "lockedAt",
              "type": "uint256"
            },
            {
              "internalType": "uint256",
              "name": "paidAt",
              "type": "uint256"
            },
            {
              "internalType": "string",
              "name": "paymentMethod",
              "type": "string"
            }
          ],
          "internalType": "struct PairXEscrow.Trade",
          "name": "",
          "type": "tuple"
        }
      ],
      "stateMutability": "view",
      "type": "function"
    },
    {
      "inputs": [],
      "name": "getTradeCount",
      "outputs": [
        {
          "internalType": "uint256",
          "name": "",
          "type": "uint256"
        }
      ],
      "stateMutability": "view",
      "type": "function"
    },
    {
      "inputs": [
        {
          "internalType": "uint256",
          "name": "tradeId",
          "type": "uint256"
        }
      ],
      "name": "markAsPaid",
      "outputs": [],
      "stateMutability": "nonpayable",
      "type": "function"
    },
    {
      "inputs": [],
      "name": "nextTradeId",
      "outputs": [
        {
          "internalType": "uint256",
          "name": "",
          "type": "uint256"
        }
      ],
      "stateMutability": "view",
      "type": "function"
    },
    {
      "inputs": [],
      "name": "owner",
      "outputs": [
        {
          "internalType": "address",
          "name": "",
          "type": "address"
        }
      ],
      "stateMutability": "view",
      "type": "function"
    },
    {
      "inputs": [],
      "name": "pause",
      "outputs": [],
      "stateMutability": "nonpayable",
      "type": "function"
    },
    {
      "inputs": [],
      "name": "paused",
      "outputs": [
        {
          "internalType": "bool",
          "name": "",
          "type": "bool"
        }
      ],
      "stateMutability": "view",
      "type": "function"
    },
    {
      "inputs": [
        {
          "internalType": "uint256",
          "name": "tradeId",
          "type": "uint256"
        }
      ],
      "name": "release",
      "outputs": [],
      "stateMutability": "nonpayable",
      "type": "function"
    },
    {
      "inputs": [],
      "name": "renounceOwnership",
      "outputs": [],
      "stateMutability": "nonpayable",
      "type": "function"
    },
    {
      "inputs": [
        {
          "internalType": "uint256",
          "name": "tradeId",
          "type": "uint256"
        },
        {
          "internalType": "bool",
          "name": "releaseToSeller",
          "type": "bool"
        }
      ],
      "name": "resolveDispute",
      "outputs": [],
      "stateMutability": "nonpayable",
      "type": "function"
    },
    {
      "inputs": [
        {
          "internalType": "uint256",
          "name": "",
          "type": "uint256"
        }
      ],
      "name": "trades",
      "outputs": [
        {
          "internalType": "uint256",
          "name": "tradeId",
          "type": "uint256"
        },
        {
          "internalType": "address",
          "name": "seller",
          "type": "address"
        },
        {
          "internalType": "address",
          "name": "buyer",
          "type": "address"
        },
        {
          "internalType": "uint256",
          "name": "amount",
          "type": "uint256"
        },
        {
          "internalType": "enum PairXEscrow.TradeState",
          "name": "state",
          "type": "uint8"
        },
        {
          "internalType": "uint256",
          "name": "createdAt",
          "type": "uint256"
        },
        {
          "internalType": "uint256",
          "name": "lockedAt",
          "type": "uint256"
        },
        {
          "internalType": "uint256",
          "name": "paidAt",
          "type": "uint256"
        },
        {
          "internalType": "string",
          "name": "paymentMethod",
          "type": "string"
        }
      ],
      "stateMutability": "view",
      "type": "function"
    },
    {
      "inputs": [
        {
          "internalType": "address",
          "name": "newOwner",
          "type": "address"
        }
      ],
      "name": "transferOwnership",
      "outputs": [],
      "stateMutability": "nonpayable",
      "type": "function"
    },
    {
      "inputs": [],
      "name": "unpause",
      "outputs": [],
      "stateMutability": "nonpayable",
      "type": "function"
    }
  ],
  "bytecode": "0x608060405260016003553480156200001657600080fd5b5060405162001c9c38038062001c9c8339810160408190526200003991620000db565b6001600055806001600160a01b0381166200006e57604051631e4fbdf760e01b81526000600482015260240160405180910390fd5b620000798162000081565b50506200010d565b600180546001600160a01b03838116610100818102610100600160a81b031985161790945560405193909204169182907f8be0079c531659141344cd1fd0a4f28419497f9722a3daafe3b4186f6b6457e090600090a35050565b600060208284031215620000ee57600080fd5b81516001600160a01b03811681146200010657600080fd5b9392505050565b611b7f806200011d6000396000f3fe60806040526004361061014b5760003560e01c8063723a04a7116100b6578063a3031b771161006f578063a3031b77146103c0578063e7197746146103d5578063eaf7ac9f146103f5578063ecb9fec31461040c578063f2fde38b1461042c578063ffa1ad741461044c57600080fd5b8063723a04a7146102fc578063813ad0831461030f5780638456cb59146103255780638a6e47ba1461033a5780638da5cb5b146103675780639c89a0e21461038a57600080fd5b8063523718d311610108578063523718d3146102325780635329c681146102625780635c975abb146102925780636f9fb98a146102aa5780637021cafe146102c7578063715018a6146102e757600080fd5b80631e6c598e146101505780632db25e051461018e57806334b25ee2146101bb57806337bdc99b146101dd5780633f4ba83a146101fd57806340e58ee514610212575b600080fd5b34801561015c57600080fd5b5061017061016b366004611615565b61048a565b604051610185999897969594939291906116ac565b60405180910390f35b34801561019a57600080fd5b506101ae6101a9366004611615565b610571565b6040516101859190611714565b3480156101c757600080fd5b506101db6101d63660046117b5565b610731565b005b3480156101e957600080fd5b506101db6101f8366004611615565b610946565b34801561020957600080fd5b506101db610b4d565b34801561021e57600080fd5b506101db61022d366004611615565b610b5f565b34801561023e57600080fd5b5061024a601b60991b81565b6040516001600160a01b039091168152602001610185565b34801561026e57600080fd5b5061028261027d366004611615565b610d0c565b6040519015158152602001610185565b34801561029e57600080fd5b5060015460ff16610282565b3480156102b657600080fd5b50475b604051908152602001610185565b3480156102d357600080fd5b506101db6102e2366004611615565b610d90565b3480156102f357600080fd5b506101db610f1e565b6102b961030a3660046117ea565b610f30565b34801561031b57600080fd5b506102b960035481565b34801561033157600080fd5b506101db611179565b34801561034657600080fd5b506102b961035536600461185c565b60046020526000908152604090205481565b34801561037357600080fd5b5060015461010090046001600160a01b031661024a565b34801561039657600080fd5b506102b96103a536600461185c565b6001600160a01b031660009081526004602052604090205490565b3480156103cc57600080fd5b506102b9611189565b3480156103e157600080fd5b506101db6103f0366004611615565b61119f565b34801561040157600080fd5b506102b96201518081565b34801561041857600080fd5b506101db610427366004611615565b6112d4565b34801561043857600080fd5b506101db61044736600461185c565b61144f565b34801561045857600080fd5b5061047d604051806040016040528060058152602001640312e302e360dc1b81525081565b604051610185919061188c565b600260208190526000918252604090912080546001820154928201546003830154600484015460058501546006860154600787015460088801805497996001600160a01b0390811699971697959660ff90951695939492939192916104ee9061189f565b80601f016020809104026020016040519081016040528092919081815260200182805461051a9061189f565b80156105675780601f1061053c57610100808354040283529160200191610567565b820191906000526020600020905b81548152906001019060200180831161054a57829003601f168201915b5050505050905089565b6105c06040805161012081018252600080825260208201819052918101829052606081018290529060808201908152602001600081526020016000815260200160008152602001606081525090565b6000821180156105d1575060035482105b6105f65760405162461bcd60e51b81526004016105ed906118d9565b60405180910390fd5b6000828152600260208181526040928390208351610120810185528154815260018201546001600160a01b03908116938201939093529281015490911692820192909252600382015460608201526004820154909190608083019060ff1660058111156106655761066561162e565b60058111156106765761067661162e565b81526020016005820154815260200160068201548152602001600782015481526020016008820180546106a89061189f565b80601f01602080910402602001604051908101604052809291908181526020018280546106d49061189f565b80156107215780601f106106f657610100808354040283529160200191610721565b820191906000526020600020905b81548152906001019060200180831161070457829003601f168201915b5050505050815250509050919050565b61073961148a565b6107416114b4565b816005600082118015610755575060035482105b6107715760405162461bcd60e51b81526004016105ed906118d9565b8060058111156107835761078361162e565b60008381526002602052604090206004015460ff1660058111156107a9576107a961162e565b146107c65760405162461bcd60e51b81526004016105ed90611907565b600084815260026020526040812060038101549091851561083657506004828101805460ff1916909117905560018201546040516001600160a01b039091169081906108fc8415029084906000818181858888f19350505050158015610830573d6000803e3d6000fd5b506108ee565b506004828101805460ff19166003179055600283015460018401546001600160a01b039081166000908152602093909352604083208054919092169290919061087e83611963565b909155505060028301546001600160a01b031660009081526004602052604081208054916108ab83611963565b909155505060028301546040516001600160a01b039091169083156108fc029084906000818181858888f193505050501580156108ec573d6000803e3d6000fd5b505b604080518381524260208201526001600160a01b0383169189917f5bbfc37a6f395570449ddbe2c9147a0830640899e7736be39a8b8520cf2b55a9910160405180910390a350505050506109426001600055565b5050565b61094e61148a565b80600081118015610960575060035481105b61097c5760405162461bcd60e51b81526004016105ed906118d9565b6000818152600260205260409020600101546001600160a01b031633146109b55760405162461bcd60e51b81526004016105ed9061197c565b8160026000821180156109c9575060035482105b6109e55760405162461bcd60e51b81526004016105ed906118d9565b8060058111156109f7576109f761162e565b60008381526002602052604090206004015460ff166005811115610a1d57610a1d61162e565b14610a3a5760405162461bcd60e51b81526004016105ed90611907565b60008481526002602090815260408083206004808201805460ff1916600317905560018201546001600160a01b03168552909252822080549192610a7d83611963565b909155505060028101546001600160a01b03166000908152600460205260408120805491610aaa83611963565b9091555050600381015460028201546040516001600160a01b0390911690819083156108fc029084906000818181858888f19350505050158015610af2573d6000803e3d6000fd5b50604080518381524260208201526001600160a01b0383169133918a917f3cad2484703b079e54223c139e644b07365c7e057c2ffd604b66568c9b099793910160405180910390a4505050505050610b4a6001600055565b50565b610b556114b4565b610b5d6114e7565b565b610b6761148a565b80600081118015610b79575060035481105b610b955760405162461bcd60e51b81526004016105ed906118d9565b6000818152600260205260409020600101546001600160a01b03163314610bce5760405162461bcd60e51b81526004016105ed9061197c565b8160008082118015610be1575060035482105b610bfd5760405162461bcd60e51b81526004016105ed906118d9565b806005811115610c0f57610c0f61162e565b60008381526002602052604090206004015460ff166005811115610c3557610c3561162e565b14610c525760405162461bcd60e51b81526004016105ed90611907565b60008481526002602052604090206004808201805460ff19166001830217905550600381015460018201546040516001600160a01b0390911690819083156108fc029084906000818181858888f19350505050158015610cb6573d6000803e3d6000fd5b50604080518381524260208201526001600160a01b0383169189917fa51c414816204341e385a8a9872c0b9eb56dacae83be547651cdfe8cb6668a06910160405180910390a3505050505050610b4a6001600055565b60008082118015610d1e575060035482105b610d3a5760405162461bcd60e51b81526004016105ed906118d9565b600082815260026020819052604090912090600482015460ff166005811115610d6557610d6561162e565b14610d735750600092915050565b620151808160070154610d8691906119be565b4210159392505050565b80600081118015610da2575060035481105b610dbe5760405162461bcd60e51b81526004016105ed906118d9565b600081815260026020819052604090912001546001600160a01b03163314610e325760405162461bcd60e51b815260206004820152602160248201527f4f6e6c792062757965722063616e2063616c6c20746869732066756e6374696f6044820152603760f91b60648201526084016105ed565b816001600082118015610e46575060035482105b610e625760405162461bcd60e51b81526004016105ed906118d9565b806005811115610e7457610e7461162e565b60008381526002602052604090206004015460ff166005811115610e9a57610e9a61162e565b14610eb75760405162461bcd60e51b81526004016105ed90611907565b60008481526002602081815260409283902060048101805460ff1916909317909255426007830181905592519283529091339187917f43b91a05fa0d756d42ad732428125c0e8d549b56a9ed16092d8582c18a3ed52a910160405180910390a35050505050565b610f266114b4565b610b5d6000611539565b6000610f3a611593565b60003411610f8a5760405162461bcd60e51b815260206004820152601d60248201527f416d6f756e74206d7573742062652067726561746572207468616e203000000060448201526064016105ed565b81610fd75760405162461bcd60e51b815260206004820152601e60248201527f5061796d656e74206d6574686f642063616e6e6f7420626520656d707479000060448201526064016105ed565b600380549081906000610fe983611963565b9091555050604080516101208101825282815233602082015260009181018290523460608201529060808201908152602001428152602001600081526020016000815260200185858080601f0160208091040260200160405190810160405280939291908181526020018383808284376000920182905250939094525050838152600260208181526040928390208551815590850151600180830180546001600160a01b039384166001600160a01b0319918216179091559487015193830180549490921693909416929092179091556060840151600382015560808401516004820180549294509092909160ff1916908360058111156110ec576110ec61162e565b021790555060a0820151600582015560c0820151600682015560e0820151600782015561010082015160088201906111249082611a36565b50905050336001600160a01b0316817f9f99c322bafe42f146af74d4d87f82e1ac7d23cd0004af43cf77277842b06dca348787426040516111689493929190611af6565b60405180910390a390505b92915050565b6111816114b4565b610b5d6115b7565b6000600160035461119a9190611b36565b905090565b8060026000821180156111b3575060035482105b6111cf5760405162461bcd60e51b81526004016105ed906118d9565b8060058111156111e1576111e161162e565b60008381526002602052604090206004015460ff1660058111156112075761120761162e565b146112245760405162461bcd60e51b81526004016105ed90611907565b61122d83610d0c565b6112795760405162461bcd60e51b815260206004820152601e60248201527f54696d656f757420706572696f6420686173206e6f7420656c6170736564000060448201526064016105ed565b60008381526002602090815260409182902060048101805460ff191660051790559151428152339186917f739bb2c84dac181ba1c60f31e31fe1c61cc64341b4dac9d04bcd3c0a71dad4d5910160405180910390a350505050565b6112dc61148a565b6112e4611593565b80600080821180156112f7575060035482105b6113135760405162461bcd60e51b81526004016105ed906118d9565b8060058111156113255761132561162e565b60008381526002602052604090206004015460ff16600581111561134b5761134b61162e565b146113685760405162461bcd60e51b81526004016105ed90611907565b600083815260026020526040902060018101546001600160a01b031633036113de5760405162461bcd60e51b8152602060048201526024808201527f53656c6c65722063616e6e6f7420616363657074207468656972206f776e20746044820152637261646560e01b60648201526084016105ed565b600281018054336001600160a01b0319909116811790915560048201805460ff19166001179055426006830181905560405190815285907f693c098e3e67d87e6681327393b6e710a69aff9d7a706fbb1991adafa5c18daa9060200160405180910390a3505050610b4a6001600055565b6114576114b4565b6001600160a01b03811661148157604051631e4fbdf760e01b8152600060048201526024016105ed565b610b4a81611539565b6002600054036114ad57604051633ee5aeb560e01b815260040160405180910390fd5b6002600055565b6001546001600160a01b03610100909104163314610b5d5760405163118cdaa760e01b81523360048201526024016105ed565b6114ef6115f2565b6001805460ff191690557f5db9ee0a495bf2e6ff9c91a7834c1ba4fdd244a5e8aa4e537bd38aeae4b073aa335b6040516001600160a01b03909116815260200160405180910390a1565b600180546001600160a01b03838116610100818102610100600160a81b031985161790945560405193909204169182907f8be0079c531659141344cd1fd0a4f28419497f9722a3daafe3b4186f6b6457e090600090a35050565b60015460ff1615610b5d5760405163d93c066560e01b815260040160405180910390fd5b6115bf611593565b6001805460ff1916811790557f62e78cea01bee320cd4e420270b5ea74000d11b0c9f74754ebdbfc544b05a2583361151c565b60015460ff16610b5d57604051638dfc202b60e01b815260040160405180910390fd5b60006020828403121561162757600080fd5b5035919050565b634e487b7160e01b600052602160045260246000fd5b6006811061166257634e487b7160e01b600052602160045260246000fd5b9052565b6000815180845260005b8181101561168c57602081850181015186830182015201611670565b506000602082860101526020601f19601f83011685010191505092915050565b8981526001600160a01b038981166020830152881660408201526060810187905260006101206116df6080840189611644565b8660a08401528560c08401528460e08401528061010084015261170481840185611666565b9c9b505050505050505050505050565b60208152815160208201526000602083015161173b60408401826001600160a01b03169052565b5060408301516001600160a01b03811660608401525060608301516080830152608083015161176d60a0840182611644565b5060a083015160c083015260c083015160e083015260e08301516101008181850152808501519150506101208081850152506117ad610140840182611666565b949350505050565b600080604083850312156117c857600080fd5b82359150602083013580151581146117df57600080fd5b809150509250929050565b600080602083850312156117fd57600080fd5b823567ffffffffffffffff8082111561181557600080fd5b818501915085601f83011261182957600080fd5b81358181111561183857600080fd5b86602082850101111561184a57600080fd5b60209290920196919550909350505050565b60006020828403121561186e57600080fd5b81356001600160a01b038116811461188557600080fd5b9392505050565b6020815260006118856020830184611666565b600181811c908216806118b357607f821691505b6020821081036118d357634e487b7160e01b600052602260045260246000fd5b50919050565b602080825260149082015273151c98591948191bd95cc81b9bdd08195e1a5cdd60621b604082015260600190565b60208082526026908201527f496e76616c696420747261646520737461746520666f722074686973206f70656040820152653930ba34b7b760d11b606082015260800190565b634e487b7160e01b600052601160045260246000fd5b6000600182016119755761197561194d565b5060010190565b60208082526022908201527f4f6e6c792073656c6c65722063616e2063616c6c20746869732066756e63746960408201526137b760f11b606082015260800190565b808201808211156111735761117361194d565b634e487b7160e01b600052604160045260246000fd5b601f821115611a3157600081815260208120601f850160051c81016020861015611a0e5750805b601f850160051c820191505b81811015611a2d57828155600101611a1a565b5050505b505050565b815167ffffffffffffffff811115611a5057611a506119d1565b611a6481611a5e845461189f565b846119e7565b602080601f831160018114611a995760008415611a815750858301515b600019600386901b1c1916600185901b178555611a2d565b600085815260208120601f198616915b82811015611ac857888601518255948401946001909101908401611aa9565b5085821015611ae65787850151600019600388901b60f8161c191681555b5050505050600190811b01905550565b848152606060208201528260608201528284608083013760006080848301015260006080601f19601f860116830101905082604083015295945050505050565b818103818111156111735761117361194d56fea26469706673582212202b2ebc0b067546cc2b9de50c23fc9dbd777fc4575609ae96ef05c812579781c464736f6c63430008140033",
  "linkReferences": {},
  "deployedLinkReferences": {}
}